:100000000C94CF050C940C0A0C94E5090C94BE09D1
:100010000C9497090C94F7050C94F7050C9470094F
:100020000C94F7050C94F7050C94A4110C946F1222
:100030000C94F7050C94F7050C94F7050C94F70550
:100040000C94F7050C94F7050C94F7050C94F70540
:100050000C94F7050C94F7050C94F7050C942609FD
:100060000C94F7050C94F7050C94F7050C94F70520
:100070000C94F7050C94F7050C94F7050C94F70510
:100080000C94F7050C94F7050C94F7050C94F70500
:100090000C94330A0C94F7050C94F7050C94F705AF
:1000A0000C94F7050C94F7050C94F70578107B1069
:1000B0006A106E1072109C109C109C107F108310A0
:1000C00087108D1091109C109710084AD73B3BCE9B
:1000D000016E84BCBFFDC12F3D6C74319ABD568347
:1000E0003DDA3D00C77F11BED9E4BB4C3E916BAAFF
:1000F000AABE000000803F0001B202FFFF01900491
:100100000923A135016A0206000160080000000011
:1001100000000000006004400000000162020000D6
:1001200000600400400000037B034CCD6C03AB0374
:1001300036567600680402CB47A202180400058BED
:10014000C1010C0400000000037F060CC92C979726
:1001500097038903264666006C02200002400400D3
:1001600000000002440400000000024804000000F7
:1001700000024C04000000000250040000000002D5
:1001800054040000000002580400000000025C0457
:100190000000000002BC040000000001EC040000AC
:1001A0004000037F060CC92C9797970402030D3576
:1001B0005D040904872D353D00A301000000000106
:1001C000078601FE074105F120283038077E0130FF
:1001D0000746019A074704F1283038076C04F128D4
:1001E00030380216020001FB00003E000B00360012
:1001F0000100020003000000650054FFEF0000FA58
:1002000080000B12820001000200000000000000CC
:100210000000000000000000280000FFFF4581FFF3
:10022000FFFA7200000000000003E8000000010077
:10023000017FFFFFFE8001001B00000000000000A6
:1002400000000000000000003E03304000000002FB
:10025000CAE3093E800000200000000000000040CA
:100260000000006000000041FF000000000B2A00B9
:1002700000165500002182FD872650FD80000000F9
:100280001F000000058000000000000001000000C9
:1002900002000000030000400000000000046F00A6
:1002A00002653200005EC040000000000000000057
:1002B00000000000000000FB8C6F5DFD5D08D900B0
:1002C0007C733B006C12CC3200139D3200D0D632CE
:1002D000000800400001F4FFE68079020000000001
:1002E00000D0D600002710FB0000004000000000F6
:1002F00000000000000000000000010000000000FD
:10030000000100010000000000FA36FFBC308E0042
:1003100005FBF0FFD95BC8FFD09ABE000010A9FF13
:10032000F41EB200CEBBF700000001000000040084
:100330000200020200000CFFC280000001800000E9
:10034000CF8000400000000000000100000000001D
:100350000006000000001400000000000000000083
:10036000000000000000000000000000000000008D
:10037000000000000000000000000000000000007D
:100380000000000000000000000000033F68B67994
:100390003528BCC67ED16C80000000400000000003
:1003A00000B26A0000000000000000000000000031
:1003B000003FF000000030000000000000000000DE
:1003C000000000000000000000000000000000002D
:1003D000000000000000000000254D002F706D009F
:1003E0000005AE000C02D00000000000650054FFC4
:1003F000EF000000000000000001000044000000C9
:10040000000C00000001000000000000650000007A
:10041000540000FFEF00000000000000000000009A
:10042000000000000000004000000000000000008C
:10043000000000000000004000000000000000007C
:1004400000000000000000000000010000000200A9
:10045000000000000000000000000000000000009C
:10046000000000000000000000000000000000008C
:1004700000000000000000001B0000000000000061
:10048000000000000000000000000000000000006C
:10049000000000000000000000000000000000005C
:1004A00000000040000000001B00000000000000F1
:1004B000000000000000000000000000000000003C
:1004C000000000000000000000000000000000002C
:1004D000000000000000000000000000000000001C
:1004E00000000000000000D8DCBAA2F1DEB2B8B40F
:1004F000A88191F74A907F916AF3F9DBA8F9B0BA25
:10050000A080F2CE81F3C2F1C1F2C3F3CCA2B280DB
:10051000F1C6D880BAA7DFDFDFF2A7C3CBC5B6F03C
:1005200087A2942448703C95406834589B78A2F187
:1005300083922D557DD8B1B4B8A1D09180F270F3DB
:1005400070F27C80A8F101B09887D943D886C98819
:10055000BAA1F20EB89780F1A9DFDFDFAADFDFDFF3
:10056000F2AAC5CDC7A90CC92C97979797F1A9896D
:10057000264666B0B4BA80ACDEF2CAF1B28C02A9EB
:10058000B69800890E161EB8A9B4992C547CB08A6E
:10059000A896365676F1B9AFB4B083C0B8A8971113
:1005A000B18F98B9AFF0240844106418F1A329550D
:1005B0007DAF83B593AFF0002850F1A3869F61A66D
:1005C000DADEDFD9FAA38696DB31A6D9F8DFBAA640
:1005D0008FC2C5C7B28CC1B8A2DFDFDFA3DFDFDF08
:1005E000D8D8F1B8A8B286B4980D355DB8AA98B03D
:1005F000872D353DB2B6BAAF8C96198F9FA70E16D0
:100600001EB49AB8AA872C547CB9A3DEDFDFA3B14D
:1006100080F2C4CDC9F1B8A9B499830D355D89B90B
:10062000A32D557DB593A30E161EA92C547CB8B4EA
:10063000B0F19783A81184A50998A383F0DA240860
:1006400044106418D8F1A529557DA58595021A2E68
:100650003A565A4048F9F3A3D9F8F098832408444D
:100660001064189782A8F111F098A224084410642D
:1006700018DAF3DED883A59401D9A302F1A2C3C589
:10068000C7D8F18492A24DDA2AD84869D92AD86805
:1006900055DA32D85071D932D8705DDA3AD85879F3
:1006A000D93AD87893A34DDA2AD84869D92AD86894
:1006B00055DA32D85071D932D8705DDA3AD85879D3
:1006C000D93AD878A88A9AF02850789EF38818F1F9
:1006D0009F1D98A8D908D8C89F129EF315A8DA12B2
:1006E00010D8F1AFC8978734B5B994A421F3D922B3
:1006F000D8F22DF3D92AD8F235F3D932D881A460B3
:100700006061D961D86C6869D969D8747071D97120
:10071000D8B1A384193D5DA3831A3E5E9310308146
:100720001011B8B0AF8F94F2DA3ED8B49AA88729E6
:10073000DAF8D8879A35DAF8D8879A3DDAF8D8B156
:10074000B9A49885022E56A581000C14A397B08AEF
:10075000F12DD928D84DD948D86DD968D8B1840D94
:10076000DA0ED8A32983DA2C0ED8A3844983DA2C95
:100770004C0ED8B8B0A88A9AF520AADADFD8A840DB
:10078000AAD0DADED8A860AADAD0DFD8F19786A896
:10079000319B069907AB9728889BF00C201440B832
:1007A000B0B4A88C9CF0042851791D301438B28262
:1007B000ABD0982C505078789BF11AB0F08A9CA856
:1007C0002951798B2951798A2470598B2058718A43
:1007D0004469388B3940688A6448318B304960A558
:1007E00088200971584468113964493019F1AC0006
:1007F0002C547CF08CA804285078F1889726A859AE
:1008000098AC8C02264666F0899CA8295179247000
:1008100059446938644831A98809205970AB1138A6
:100820004069A8193148608CA83C415C207C00F1EB
:1008300087981986A86E767EA999882D557D9EB9D0
:10084000A38A228A6E8A568A5E9FB18306264666EE
:100850000E2E4E6E9DB8AD002C547CF2B18CB49926
:10086000B9A32D557D8191AC38AD3AB58391AC2DAE
:10087000D928D84DD948D86DD968D88C9DAE29D9FA
:1008800004AED851D904AED879D904D881F39DAD3E
:10089000008DAE1981ADD901D8F2AEDA26D88E918D
:1008A0002983A7D9ADADADADF32AD8D8F1B0AC89C5
:1008B000913E5E76F3AC2E2EF1B18C5A9CAC2C2876
:1008C00028289CAC3018A8988128343C9724A72865
:1008D000343C9C24F2B089AC912C4C6C8A9B2DD971
:1008E000D8D851D9D8D879D9D8D8F19E88A331DAB7
:1008F000D8D8912DD928D84DD948D86DD968D8B134
:100900008393353D8025DAD8D88569DAD8D8B49371
:1009100081A328343CF3AB8BF8A391B609B4D9ABCF
:10092000DEFAB0879CB9A3DDF1A3A3A3A395F1A33D
:10093000A3A39DF1A3A3A3A3F2A3B49080F2A3A3C6
:10094000A3A3A3A3A3A3A3A3B2A3A3A3A3A3A3B05B
:1009500087B599F1A3A3A398F1A3A3A3A397A3A3F6
:10096000A3A3F39BA3A3DCB9A7F1262626D8D8FF1F
:100970002900444D5020496E697469616C697A613F
:1009800074696F6E206661696C65642028636F64AA
:10099000652000444D5020726561647921205761C3
:1009A0006974696E6720666F72206669727374205D
:1009B000696E746572727570742E2E2E00456E61AC
:1009C000626C696E6720696E7465727275707420EE
:1009D000646574656374696F6E202841726475691B
:1009E0006E6F2065787465726E616C20696E7465D7
:1009F00072727570742030292E2E2E00456E616241
:100A00006C696E6720444D502E2E2E0000000000B1
:100A1000000000002A2B2800000000000000000059
:100A20000000000000000000000000002C9EB4A0A8
:100A3000A1A2A434A6A7A5AE362D3738271E1F20A5
:100A4000212223242526B333B62EB7B89F8485866A
:100A50008788898A8B8C8D8E8F90919293949596AE
:100A60009798999A9B9C9D2F3130A3AD350405062C
:100A70000708090A0B0C0D0E0F101112131415168E
:100A80001718191A1B1C1DAFB1B0B50000000000EB
:100A9000250028002B002E00310004040404040368
:100AA000040502020202040302020202060606060E
:100AB0000606040402020204040408020110408035
:100AC0004010204080408008020401804020100235
:100AD00001108010204040200000000200090F009B
:100AE00000030401000C00000000000000000000F2
:100AF0000000000000000005010906A101850205B3
:100B00000719E029E715002501750195088102956F
:100B100001750881039506750815002565050719F7
:100B20000029658100C0080B0002020201000904CF
:100B3000000001020200000524001001052401014B
:100B400001042402060524060001070581031000A4
:100B50004009040100020A000000070502024000EB
:100B6000000705830240000004030904120100028B
:100B7000EF0201404123368000010102030141726E
:100B80006475696E6F204C4C430041726475696EE8
:100B90006F204C656F6E6172646F0000EC1C112455
:100BA0001FBECFEFDAE0DEBFCDBF11E0A0E0B1E0C5
:100BB000E8E9F6E402C005900D92A037B107D9F735
:100BC00023E0A0E7B1E001C01D92A835B207E1F72C
:100BD00015E0CFECD5E004C02197FE010E940B2167
:100BE000CE3CD107C9F70E94CE150C944A230C9431
:100BF0000000CF93DF931F92CDB7DEB76983DC018E
:100C0000ED91FC910280F381E02D41E050E0BE01C6
:100C10006F5F7F4F09950F90DF91CF91089583E02B
:100C20008093E9008091F200882319F08AE3809391
:100C3000E8000895FC018485958597FD0BC09FB75A
:100C4000F89482E08093E9008091F2009FBF90E0E9
:100C5000019608959FB7F89482E08093E90080910F
:100C6000F2009FBF90E008953FB7F8948091310261
:100C700090913202A0913302B091340226B5A89B24
:100C800005C02F3F19F00196A11DB11D3FBFBA2F1E
:100C9000A92F982F8827820F911DA11DB11DBC017E
:100CA000CD0142E0660F771F881F991F4A95D1F743
:100CB00008950895DC01FB0112968C91129790E043
:100CC0002481358182179307D1F491818081813A03
:100CD00031F481E0913091F0933089F411C0813288
:100CE00071F49B3021F482811F968C9305C09A3059
:100CF00031F4828150968C9381E00895089580E0CC
:100D00000895DC01FB0188E4808389E4818384E425
:100D100082831D969C911D979F709F5B93831D9668
:100D20008D919C911E9724E0969587952A95E1F7E1
:100D30008F708F5B848385E00895FC0182818F5BD7
:100D4000FB01808381E0089585ED8093BC00809154
:100D5000BC0084FDFCCF10925B0208954091090213
:100D6000262F30E0240F311D21323105DCF4209193
:100D70005B022430C9F4FC0180E090E0861758F44F
:100D8000309109022191DC01A751BE4FA30FB11D83
:100D90002C930196F3CF80910902680F60930902AA
:100DA00080E0089581E0089582E00895089508950F
:100DB0000895E091750180917401E81730F4F0E036
:100DC000E753FE4F808190E008958FEF9FEF0895E5
:100DD0009091750180917401981750F4E92FF0E01B
:100DE000E753FE4F208130E09F5F9093750102C072
:100DF0002FEF3FEFC90108958091740190E0209199
:100E00007501821B91090895CF92DF92EF92FF92B4
:100E10000F931F93CF93DF937C01CB018A01209125
:100E20005C02222389F0EB016B01C40ED51ECC15A8
:100E3000DD0569F06991D701ED91FC910190F08198
:100E4000E02DC7010995F3CF642F0E94AE06C801BB
:100E5000DF91CF911F910F91FF90EF90DF90CF9096
:100E60000895CF93DF931F92CDB7DEB769832091AA
:100E70005C022223D1F020917F02203240F021E059
:100E800030E0FC013383228380E090E015C0809144
:100E90005D02E82FF0E0E25AFD4F998190838F5F69
:100EA00080935D0280937F0205C061E0CE010196D0
:100EB0000E94AE0681E090E00F90DF91CF910895FF
:100EC000089580E090E0089581E08093C80108953E
:100ED000CF93DF93EC0180911C01882331F083E0F4
:100EE0000E94AD141816190634F081E090E09B833F
:100EF0008A8380E090E0DF91CF91089583E00E94A3
:100F00009C1590E008950F931F93CF93DF931F924A
:100F1000CDB7DEB78C01FC018485958597FF0EC0A7
:100F2000CE0101960E947611019719F4898190E013
:100F300002C08FEF9FEFF80195878487F8018485C1
:100F400095850F90DF91CF911F910F910895CF93C9
:100F5000DF931F92CDB7DEB7FC018485958597FDA1
:100F600005C02FEF3FEF358724870BC0CE010196D8
:100F70000E947611019719F4898190E002C08FEFE9
:100F80009FEF0F90DF91CF9108950E94F822EF928A
:100F9000FF920F931F93CF93DF93FB0120812138A2
:100FA00051F52381223239F5DC0112962C9130E083
:100FB0004481558142175307F1F4EC010B851C85E0
:100FC000E12CF12C0115110591F0F80144815581B6
:100FD0006281738180E80E9416128F3FFFEF9F07A6
:100FE00069F0E80EF91ED8010D911C91EBCF81E05C
:100FF0008F87C70105C080E090E002C08FEF9FEFB0
:10100000DF91CF911F910F91FF90EF900895CF93B3
:10101000DF93CDB7DEB769970FB6F894DEBF0FBE8A
:10102000CDBFFC01DB018C918F5F8C93BE016F5FA4
:101030007F4F89E1DB011D928A95E9F729E0298339
:1010400084E08A8391E09D8383E08E832A8721E276
:101050002B879C879D879F8722E2288B27E02B8BFD
:1010600025E02C8B8E8B20E430E0388F2F8B998FEE
:1010700082818B8395858685998B8A8B8381806815
:101080008D8B49E150E080E00E94161269960FB600
:10109000F894DEBF0FBECDBFDF91CF910895EF92E0
:1010A000FF921F93CF93DF93EC01162F683818F04F
:1010B000E8E7E60F23C0E62FF0E067FF0DC0E05839
:1010C000F10981E090E001C0880FEA95EAF79C8180
:1010D000892B8C83E0E012C0E45FF54FE491E111CD
:1010E00007C081E090E09B838A83E12CF12C3CC017
:1010F000E7FF04C08C8182608C83EF778E818E172E
:1011000039F18F81E81721F18885E81709F1898580
:10111000E817F1F08A85E817D9F08B85E817C1F058
:10112000DE01169680E090E02D91211106C0DE01CF
:10113000A80FB91F1696EC930BC001968630910547
:1011400099F781E090E09B838A83E12CF12C07C022
:10115000CE0104960E944615EE24E394F12C183833
:1011600018F0E8E7E10F1DC0E12FF0E017FF0EC017
:10117000E058F10981E090E001C0880FEA95EAF7B4
:1011800080959C8189238C83E0E00BC0E45FF54F60
:10119000E491EE23D1F0E7FF04C08C818D7F8C8336
:1011A000EF77DE0186E0EE2341F016969C911697CC
:1011B000E91303C016961C9216978150119681115F
:1011C000F2CFCE0104960E944615C701DF91CF9160
:1011D0001F91FF90EF9008958F929F92AF92BF92D0
:1011E000CF92DF92EF92FF926B017C010E94340656
:1011F0004B015C01C114D104E104F104F1F00E943F
:101200003406DC01CB0188199909AA09BB09883E7B
:101210009340A105B10570F321E0C21AD108E1089D
:10122000F10888EE880E83E0981EA11CB11CC11441
:10123000D104E104F10419F7DDCFFF90EF90DF90C6
:10124000CF90BF90AF909F908F9008951F920F9274
:101250000FB60F9211242F933F938F939F93AF93C9
:10126000BF9380912D0290912E02A0912F02B091F8
:10127000300230912C0223E0230F2D3720F4019609
:10128000A11DB11D05C026E8230F0296A11DB11DA9
:1012900020932C0280932D0290932E02A0932F0274
:1012A000B09330028091310290913202A0913302CA
:1012B000B09134020196A11DB11D8093310290932B
:1012C0003202A0933302B0933402BF91AF919F9149
:1012D0008F913F912F910F900FBE0F901F901895F7
:1012E0001F920F920FB60F9211242F933F934F939B
:1012F0005F936F937F938F939F93AF93BF93EF937E
:10130000FF93E0910801F09109010995FF91EF9198
:10131000BF91AF919F918F917F916F915F914F910D
:101320003F912F910F900FBE0F901F9018951F9215
:101330000F920FB60F9211242F933F934F935F9309
:101340006F937F938F939F93AF93BF93EF93FF938D
:10135000E0910601F09107010995FF91EF91BF918E
:10136000AF919F918F917F916F915F914F913F913D
:101370002F910F900FBE0F901F9018951F920F92F4
:101380000FB60F9211242F933F934F935F936F9358
:101390007F938F939F93AF93BF93EF93FF93E091CE
:1013A0000401F09105010995FF91EF91BF91AF9173
:1013B0009F918F917F916F915F914F913F912F916D
:1013C0000F900FBE0F901F9018951F920F920FB69F
:1013D0000F9211242F933F934F935F936F937F93BB
:1013E0008F939F93AF93BF93EF93FF93E09102018D
:1013F000F09103010995FF91EF91BF91AF919F91FA
:101400008F917F916F915F914F913F912F910F90AD
:101410000FBE0F901F9018951F920F920FB60F924C
:1014200011242F933F934F935F936F937F938F93E9
:101430009F93AF93BF93EF93FF93E0910001F091DF
:1014400001010995FF91EF91BF91AF919F918F910C
:101450007F916F915F914F913F912F910F900FBEB0
:101460000F901F9018951F920F920FB60F92112494
:101470002F933F934F935F936F937F938F939F939C
:10148000AF93BF93EF93FF938091B900887F80362D
:1014900009F49CC068F5883209F45BC090F480318F
:1014A00009F454C038F4882309F4F6C0883009F4EC
:1014B0004DC0F6C0883109F44CC0803209F45DC0DB
:1014C000EFC0803409F468C048F4803309F455C093
:1014D000883309F0E5C080935902D8C0803509F4FB
:1014E0004FC0883509F45DC0883409F0D9C0D6C032
:1014F000883909F4C7C0A8F4883709F467C038F4FC
:10150000883609F463C0803709F460C0C9C08838E0
:1015100009F4B8C0803909F45FC0803809F0C0C050
:101520005BC0803B09F486C038F4803A09F466C099
:10153000883A09F47FC0B4C0803C09F4A7C0883C55
:1015400009F4A4C0883B09F48AC0AAC0809136027D
:1015500010C09091580280915702981770F5E09151
:10156000580281E08E0F80935802F0E0E95CFD4F55
:1015700080818093BB0085EC86C0809359028EC029
:10158000E091580281E08E0F809358028091BB0059
:10159000F0E0E95CFD4F8083909158028091570202
:1015A0006EC0E091580281E08E0F809358028091C6
:1015B000BB00F0E0E95CFD4F808380915A0281110D
:1015C0006DC081E08093350284EA61C083E080933E
:1015D0005B0210922B02CFCF80912B02803208F059
:1015E00051C0E0912B0281E08E0F80932B028091FD
:1015F000BB00F0E0E55FFD4F8083BDCF85EC8093BD
:10160000BC0010925B0280912B02803230F4E0919A
:101610002B02F0E0E55FFD4F108260912B0270E03D
:10162000E0917001F09171018BE092E009951092C8
:101630002B0236C084E080935B0210920A02109263
:101640000902E0917201F0917301099580910902FC
:10165000811105C081E0809309021092E901E091B7
:101660000A0281E08E0F80930A02F0E0E751FE4FFC
:1016700080818093BB0090910A02809109029817A3
:1016800008F479CF85E88093BC000AC085EC80938C
:10169000BC0010925B0204C0109259020E94A40682
:1016A000FF91EF91BF91AF919F918F917F916F913A
:1016B0005F914F913F912F910F900FBE0F901F9010
:1016C0001895FF920F931F93CF93DF93142FF22E51
:1016D000032F91E090935C0280937E0210925D0252
:1016E00010927F0289EE92E00E943107CF2DD02F19
:1016F000CE01810F911D8C01C017D10731F0699186
:1017000089EE92E00E943107F7CF81E00E94580DE8
:1017100091E0811190E0892FDF91CF911F910F917E
:10172000FF900895CF93DF931F92CDB7DEB7498323
:101730009E012F5F3F4F41E00E94610B0F90DF91B0
:10174000CF9108952F923F924F925F926F927F9226
:101750008F929F92AF92BF92CF92DF92EF92FF92C1
:101760000F931F93CF93DF93CDB7DEB728970FB6B4
:10177000F894DEBF0FBECDBFD82EC62E4F834901D1
:101780008FB7F89440902D0250902E0260902F0257
:10179000709030028FBF2D2C220CE12C1886FF2474
:1017A000F394A42EB12C33243A94980140E050E0F5
:1017B0002B833C834D835E833F81E31608F08CC00E
:1017C000F0925C02D0927E0210925D0210927F0233
:1017D0006C2D89EE92E00E94310781E00E94580D45
:1017E000F0925C02D0927E0210925D0210927F0213
:1017F00080915B028111FCCFC5018E199109813264
:10180000910514F080E290E0813208F080E2F092DD
:101810005B02F0925A0230925902109258029FEFE6
:10182000980F90935702F0923602909136029229C7
:101830009093360290913502913071F410923502F6
:10184000909136029093BB009091BC0093FDF8CF2D
:1018500045EC4093BC0003C055EE5093BC00909102
:101860005B029130E1F390915802981710F4809147
:101870005802E7E3F2E0A9ECB1E090E0981721F01C
:1018800021912D939F5FFACF10927501909374016F
:101890009091740180917501981709F456C0011553
:1018A000110509F43FC02FB7F89480912D02909153
:1018B0002E02A0912F02B09130022FBF84199509FA
:1018C000A609B7092B813C814D815E818217930760
:1018D000A407B50738F139C001151105E1F12FB79B
:1018E000F89480912D0290912E02A0912F02B09138
:1018F00030022FBF84199509A609B70920E030E00E
:1019000080179107A207B30730F14F81242F30E0F1
:101910005885852F550F990B82179307E4F48FEFA5
:10192000888719C0D401E885AE0FB11DE7FDBA95CF
:10193000BA83A98389EE92E00E94E806A981BA8160
:101940008C93B885BF5FB887A3CF8F81813208F0B1
:1019500080E2E80E31CF888528960FB6F894DEBF76
:101960000FBECDBFDF91CF911F910F91FF90EF90F0
:10197000DF90CF90BF90AF909F908F907F906F90AF
:101980005F904F903F902F900895BF92CF92DF923B
:10199000EF92FF920F931F93CF93DF931F92CDB7D8
:1019A000DEB7F82EE62EC42EB22ED02E08EE13E0AF
:1019B0009E012F5F3F4F41E00E94A20B882339F127
:1019C0002C2D30E02B1931092F5F3F4F81E090E043
:1019D00002C0880F991FBA94E2F70197022E01C046
:1019E000880F0A94EAF74D2D50E0BA0102C0660F45
:1019F000771F2A95E2F7482F40959981492386233E
:101A0000482B49836E2D8F2D0E94920B01C080E0E0
:101A10000F90DF91CF911F910F91FF90EF90DF908A
:101A2000CF90BF900895CF92DF92EF92FF920F93E5
:101A30001F93CF93DF931F92CDB7DEB7F82EE62E1C
:101A4000D42EC22E08EE13E09E012F5F3F4F41E0DF
:101A50000E94A20B898141E050E001C0440FDA945A
:101A6000EAF7CC2011F0482B02C040954823498367
:101A70006E2D8F2D0E94920B0F90DF91CF911F91B1
:101A80000F91FF90EF90DF90CF900895009769F04D
:101A9000FC0101900020E9F73197AF01481B590B79
:101AA000BC0180E892E00C94680780E090E0089523
:101AB000282F30917F02313208F04AC080915B02BA
:101AC0008111FCCF90917E0242E040935B02209313
:101AD0005A022FEF20935902109258023093570266
:101AE000EEE5F2E0A7E3B2E020E0321721F0419109
:101AF0004D932F5FFACF1092360220913602990F44
:101B0000922B9093360290913502913061F41092AD
:101B10003502909136029093BB009091BC0093FDEA
:101B2000F8CF95EC01C095EE9093BC0090915B02CC
:101B30009230E1F3909159029F3F79F080915902E0
:101B4000803241F080915902803331F084E005C049
:101B500081E003C082E001C083E010925D02109238
:101B60007F0210925C0208950F931F93CF93DF932F
:101B7000C1E1D3E008EE13E022E133E041E06AE3A3
:101B800088810E94A20B8981DF91CF911F910F91D3
:101B9000089521E042E06AE6809111030C94130D50
:101BA000482F6EE6809111030C94920B2F923F9276
:101BB0004F925F926F927F928F929F92AF92BF925D
:101BC000CF92DF92EF92FF920F931F93CF93DF9309
:101BD0003C015B01342E522E202E4F716DE6809118
:101BE00011030E94920B852D0E94D00D80E190E0A0
:101BF0000E9411216C01002331F080E190E00E94ED
:101C000011217C0102C0E12CF12CC0E0D0E0CA150A
:101C1000DB0508F06CC0CE014096A816B90618F492
:101C20004A2C4C1A02C080E1482E842D90E020E01E
:101C300031E0251931092817390714F4452C41944E
:101C4000222071F0D70180E090E0841560F4FE015D
:101C5000E80FF91FE60DF71DE491ED930196F5CF1E
:101C60007301EC0EFD1E9701442D6FE68091110368
:101C70000E94610B842C912CC114D10419F1432DC5
:101C80004F716DE6809111030E94920B852D0E9489
:101C9000D00D08EE13E09601442D6FE680911103FC
:101CA0000E94A20BA401B601C7010E94FD22892B4C
:101CB00049F0C6010E94A921222011F1C7010E940A
:101CC000A9211EC0C80DD91D540CCA15DB0508F08A
:101CD0009ECF511001C03394432D4F716DE680911A
:101CE00011030E94920B852D0E94D00D90CFC6014A
:101CF0000E94A921222031F0C7010E94A92102C01F
:101D000080E001C081E0DF91CF911F910F91FF90A2
:101D1000EF90DF90CF90BF90AF909F908F907F908B
:101D20006F905F904F903F902F9008950F931F9367
:101D3000662351F0462F9C0108EE13E064E7809182
:101D400011030E94A20B02C0FC0110821F910F918F
:101D500008950F931F93CF93DF93C1E1D3E008EE73
:101D600013E022E133E042E062E788810E94A20BA7
:101D700089819A81982789279827DF91CF911F9190
:101D80000F910895EF92FF920F931F93CF93DF93DC
:101D90001F92CDB7DEB77A0189019E012F5F3F4FB9
:101DA00041E00E94A20B882339F029812E7730E090
:101DB00035952795F70120830F90DF91CF911F91E3
:101DC0000F91FF90EF9008958F929F92AF92BF92E4
:101DD0000F931F93CF93DF93CDB7DEB7A1970FB6C5
:101DE000F894DEBF0FBECDBF19A2423008F44AE01E
:101DF0008E010F5D1F4F842E912CA12CB12CA501BB
:101E000094010E94E920E62FB901CA01015011098D
:101E1000EA3014F4E05D01C0E95CD801EC93232BB7
:101E2000242B252B61F7C8010E94460DA1960FB601
:101E3000F894DEBF0FBECDBFDF91CF911F910F9100
:101E4000BF90AF909F908F9008954F925F926F9246
:101E50007F928F929F92AF92BF92CF92DF92EF923A
:101E6000FF926B017C019B01AC010E94CF20882373
:101E700019F081E691E01AC046015701E894B7F8DD
:101E80002FEF3FEF4FE75FE7C501B4010E94CF207E
:101E9000811110C02FEF3FEF4FE75FE7C501B4019D
:101EA0000E948C1E181634F485E691E00E94460DBF
:101EB0007C0183C02FEF3FEF4FE75FE4C701B6011E
:101EC0000E940B2018161CF489E691E0EFCF2FEF4B
:101ED0003FEF4FE75FECC701B6010E948C1E87FD04
:101EE000F3CF20E030E0A901C701B6010E948C1EAB
:101EF00087FF0BC06DE280E892E00E94F9055C016B
:101F0000F7FAF094F7F8F09402C0A12CB12C2AE073
:101F100037ED43EA5BE3C701B6010E94AE1D2B011A
:101F20003C010E94031F6B017C010E94321F9B0138
:101F3000AC01C301B2010E94AD1D2B013C014AE07E
:101F4000C701B6010E94E40E7C01EA0CFB1C6EE2A4
:101F500080E892E00E94F905E80EF91E20E030E0EA
:101F600040E251E4C301B2010E9418202B013C0160
:101F70000E94031F4B01A12CB12C4AE0C501B40102
:101F80000E94E40EE80EF91EC501B4010E94321F42
:101F90009B01AC01C301B2010E94AD1D20E030E005
:101FA00040E251E40E9418200E94031F80E090E06C
:101FB0004AE00E94E40EE80EF91E8DE691E00E94D0
:101FC000460D8E0D9F1DFF90EF90DF90CF90BF903C
:101FD000AF909F908F907F906F905F904F900895FB
:101FE000CF93DF93682F80E892E00E94F905EC011F
:101FF0008DE691E00E94460D8C0F9D1FDF91CF91E1
:1020000008950F931F93CF93DF938C01C0E0D0E02E
:10201000F801EC0FFD1F6491662341F080E892E027
:102020000E94F905892B11F02196F2CFCE01DF91A4
:10203000CF911F910F910895CF93DF930E940110CC
:10204000EC018DE691E00E94460D8C0F9D1FDF9103
:10205000CF910895CF93DF93EA0191E090935C02D2
:1020600080937E0210925D0210927F0289EE92E0D0
:102070000E943107698189EE92E00E9431076881F0
:1020800089EE92E00E94310781E00E94580D91E0B4
:10209000811190E0892FDF91CF91089590E0FC01AC
:1020A000E852F54F4491FC01E754F54F2491FC01AF
:1020B000E656F54F8491882309F44CC04423E1F19E
:1020C00050E0FA013197EF30F105B0F5EA5AFF4FD1
:1020D0000C940B21909180009F7707C09091800015
:1020E0009F7D03C090918000977F9093800024C0D3
:1020F00094B59F7702C094B59F7D94BD1DC090910B
:1021000090009F7707C0909190009F7D03C09091B1
:102110009000977F909390000FC09091C0009F77A0
:1021200003C09091C0009F7D9093C00005C0909126
:10213000C200977F9093C200E82FF0E0EE0FFF1FE0
:10214000E457F54FA591B4918FB7F894EC91E22B39
:10215000EC938FBF089581E08093D4028093D502E1
:102160002AED32E03093D7022093D6021092D902A2
:102170001092D80227E231E03093D1022093D002AE
:102180001092DC021092DB021092DE021092DD024D
:102190008093DF028093E00281EC8093DA020E9458
:1021A000BA15FC0121818091D40290E0820F911D2B
:1021B0000897C4F5A281B381109729F480ED92E0CD
:1021C000938382830EC018968D919C9119970097E6
:1021D00011F0DC01F8CF80ED92E019969C938E937C
:1021E000189780818093D20281818093D30290815D
:1021F0008091D502890F808380E09091D402891765
:1022000088F4A091D602B091D702A80FB11D9C917D
:10221000A181B0E0A65FBE4F9C9391819F5F9183A7
:102220008F5FEBCF08954091440350914503209177
:1022300042033091430342175307B4F49091E800EE
:102240009570E1F39091E80092FD19C08093F10040
:10225000809144039091450301968F739927892BB0
:1022600019F48EEF8093E800809144039091450328
:102270000196909345038093440381E0089580E0A4
:102280000895DF92EF92FF920F931F93CF93DF9306
:10229000D82EF92EE42E062F10E0C8010196880FE3
:1022A0000E94131183E00E941311CD2DDF2D0C0F1E
:1022B0001D1FC017D10789F0E7FE03C0FE018491FE
:1022C00001C088810E941311F82E80E00E94131132
:1022D0008F2121968111EDCF01C081E0DF91CF9157
:1022E0001F910F91FF90EF90DF900895209141038F
:1022F000211103C08FEF9FEF08955FB7F89422E09C
:102300002093E9002091F20030E01216130614F435
:1023100021E030E0422FFC0184E6415038F028985B
:10232000809340039091F1009193F7CF21153105EF
:1023300021F08091F200882319F05FBFC901089550
:102340008BE68093E800F9CF1F920F920FB60F92A1
:1023500011248F939F938091E1009091E100937FEE
:102360009093E10083FF0FC01092E90091E09093F9
:10237000EB001092EC0092E39093ED001092410379
:1023800098E09093F00082FF20C093E09093E900E2
:102390009091F200992319F09AE39093E8009091BC
:1023A0004703992339F09091470391509093470345
:1023B000992389F190914003992339F0909140033A
:1023C000915090934003992341F184FF10C0809174
:1023D000E2008E7E81608093E2008091E1008F7E3A
:1023E0008093E10080913F038E7E806111C080FF69
:1023F00016C08091E2008E7E80618093E200809121
:10240000E1008E7E8093E10080913F038E7E8160AB
:1024100080933F0304C05D9ACDCF289AD6CF9F9179
:102420008F910F900FBE0F901F901895DF92EF9233
:10243000FF920F931F93CF93DF93D82E8A017B01D6
:10244000E40EF51EEB01CE15DF0571F0D7FE03C0DB
:10245000FE01849101C088810E941311219681118F
:10246000F2CF8FEF9FEF01C0C801DF91CF911F9195
:102470000F91FF90EF90DF9008950F931F93CF93EC
:10248000DF931F92CDB7DEB782E0898342E450E04C
:1024900066E27BE080E80E9416120E94BA15DC0119
:1024A00012960D911C9113970115110589F0D80111
:1024B000ED91FC910280F381E02DBE016F5F7F4FB3
:1024C000C801099597FD04C0F80100851185ECCF7E
:1024D00089810F90DF91CF911F910F9108951F92E5
:1024E0000F920FB60F921124CF92DF92EF92FF92CC
:1024F0000F931F932F933F934F935F936F937F930C
:102500008F939F93AF93BF93EF93FF93CF93DF93FB
:10251000CDB7DEB76C97DEBFCDBF1092E9008091DA
:10252000E80083FFFBC168E0CE0145960E94AD152F
:1025300082EF8093E8008D8987FF05C09091E800C5
:1025400090FFFCCF03C09EEF9093E800982F907609
:1025500009F0C6C09E894F89588D2F89F88C91113A
:102560000CC0803829F480913E038093F10002C0B2
:102570001092F1001092F10045C1913051F4811197
:1025800041C14130510509F03DC180913E038D7F2D
:102590000BC0933061F4811135C14130510509F010
:1025A00031C180913E03826080933E032BC1953000
:1025B00049F48091E80080FFFCCF822F80688093EF
:1025C000E30020C1963009F05EC00B8D1C8D22E027
:1025D0001092E9001092450310924403F21232C0A7
:1025E00010924303109242030E943D1299E0BE01F3
:1025F0006F5F7F4FDB01E92F1D92EA95E9F7998321
:10260000FA8291E09E8390EA98879AEF99872091C9
:10261000440330914503275F3F4F3C832B838D83D9
:102620001092E90010924503109244031093430363
:102630000093420349E050E080E00E9416120E949D
:102640003D12E0C010934303009342030E94BA1569
:10265000DC0112960D911C9113970115110509F4D7
:10266000BBC0D801ED91FC910480F581E02DBE0145
:102670006B5E7F4FC8010995009709F0C7C0F8014C
:1026800000851185EACF973009F445C1983021F4CF
:1026900081E08093F100B6C0993009F0B3C0837037
:1026A00009F039C1EBE0F1E081E031E096E320810F
:1026B000211109C08EE78093EA001092EA008F8909
:1026C000809341039FC08093E9003093EB002191F8
:1026D0002093EC009093ED008F5F873041F7EACFB5
:1026E0008B8D9C8D1092E90010924503109244034B
:1026F0009093430380934203898D811153C08E8947
:102700009D89913A49F4813209F005C147E050E0D2
:1027100065E171E080E0BBC0913209F0FCC083321A
:1027200069F48F89988DA0E0B0E0809311019093B7
:102730001201A0931301B093140164C0803269F4B4
:102740008091E80082FFFCCF67E085E191E00E9484
:10275000AD158BEF8093E80055C0823209F052C06E
:102760008F8980931C01EEEFFFE7859194918B3F59
:102770009C4D19F0E0E0F8E002C0EEEFFAE0809145
:10278000150190911601A0911701B0911801803B9D
:102790009440A105B10509F09EC080911C0180FF05
:1027A00079C099C00E94BA15FC01028113810115FC
:1027B000110509F4B0C0D801ED91FC910190F081B0
:1027C000E02DBE016B5E7F4FC801099581111AC0D3
:1027D000F80100851185EBCFF1E0FF1609F44EC03A
:1027E000F3E0FF1298C08F89882309F44AC0823031
:1027F00089F440E860E18AE89BE00E944111882367
:1028000009F489C08EEF8093E80088C01816190675
:10281000CCF381C0813029F440E86BE08EE79BE087
:10282000ECCF833009F077C00E94BA15DC01129614
:10283000ED90FC9013978E010F5F1F4F6801E1141C
:10284000F10479F0D701ED91FC910680F781E02D3C
:10285000B801C7010995080F111DF701E084F18443
:10286000EECFD8011C92F60101900020E9F73197D4
:10287000BF016C197D0940E0C601BFCF6CE67BE06B
:1028800002C068E67BE0FB01449150E080E80E94D2
:102890001612B8CFEE3F2AE0F20751F08081918105
:1028A0008737A7E79A0721F09093FF0A8093FE0AE3
:1028B00087E797E791838083809160008093460348
:1028C0009BE088E10FB6F894A895809360000FBE56
:1028D0009093600097CF808191818737974709F067
:1028E00091CFA8958091600088618093600080916D
:1028F000460380936000EE3FBAE0FB0739F0809119
:10290000FE0A9091FF0A918380837CCF1092FF0A88
:102910001092FE0A77CF81E28093EB006C960FB69F
:10292000F894DEBF0FBECDBFDF91CF91FF91EF9145
:10293000BF91AF919F918F917F916F915F914F91D7
:102940003F912F911F910F91FF90EF90DF90CF90CB
:102950000F900FBE0F901F9018957F928F929F92AD
:10296000AF92BF92CF92DF92EF92FF920F931F939D
:10297000CF93DF93C82E8B017A018091410381119F
:1029800003C08FEF9FEF74C080913F0380FF05C0AD
:102990008091E00082608093E000CE2DDF2DD12C6D
:1029A0008AEFB82E8C2D8770982E8C2D8072882EF1
:1029B0008C2D8074782E9AE3A92E209719F4DD20AF
:1029C00009F451C08C2D0E949C1581110AC0BA9443
:1029D000BB20B9F261E070E080E090E00E94EC087A
:1029E000ECCF282F30E0C217D3070CF48C2F9FB701
:1029F000F8949092E9002091E80025FF32C0282F3A
:102A000030E0C21BD30B882029F08150A0F0109237
:102A1000F100FBCFF801C7FE0AC0815050F044918D
:102A20004093F1003196F9CF41914093F1008150EC
:102A3000D8F7020F131FDD2019F0A092E8000AC09A
:102A40008091E80085FD08C0A092E800DD24D394C1
:102A5000209739F0D12C05C0209719F47110A0925D
:102A6000E8009FBFAACF5D9884E680934703C70123
:102A7000DF91CF911F910F91FF90EF90DF90CF905A
:102A8000BF90AF909F908F907F9008950F931F936A
:102A9000CF93DF931F92CDB7DEB78C018091E10217
:102AA000811105C00E94AB1081E08093E10282E0B9
:102AB000898341E050E0BE016F5F7F4F8091D30278
:102AC0000E94AD1497FD08C08091D30248E050E009
:102AD000B80180640E94AD140F90DF91CF911F91D7
:102AE0000F910895CF92DF92EF92FF920F931F9371
:102AF000CF93DF936C017A018B01C0E0D0E0CE155B
:102B0000DF0581F0D8016D918D01D601ED91FC9129
:102B10000190F081E02DC6010995892B11F02196D5
:102B2000EECF7E01C701DF91CF911F910F91FF90F2
:102B3000EF90DF90CF9008952FB7F894877080932F
:102B4000E9009091E800892F807295FF04C0909170
:102B5000F20080E4891B2FBF0895615030F020916E
:102B6000F100FC0120830196F8CF289884E6809339
:102B70004003089580914C0381110DC082E0809341
:102B8000480384E08093490310924B0310924A0358
:102B900081E080934C0388E493E00895CF93DF9322
:102BA000CDB7DEB7CC5AD1090FB6F894DEBF0FBE51
:102BB000CDBF789484B5826084BD84B5816084BDC6
:102BC00085B5826085BD85B5816085BD80916E00CB
:102BD000816080936E0010928100809181008260FC
:102BE0008093810080918100816080938100809139
:102BF000800081608093800080919100826080934A
:102C0000910080919100816080939100809190006B
:102C10008160809390008091C10084608093C100A6
:102C20008091C10082608093C1008091C100816069
:102C30008093C1008091C30081608093C300809124
:102C4000C00082608093C0008091C2008160809348
:102C5000C20080917A00846080937A0080917A002B
:102C6000826080937A0080917A00816080937A00FC
:102C700080917A00806880937A00109241031092CC
:102C80003E0310923F038091D70081608093D7006C
:102C900080EA8093D80089B5806189BD89B582605A
:102CA00089BD09B400FEFDCF61E070E080E090E0F6
:102CB0000E94EC088091D8008F7C80618093D800BE
:102CC0008091E000807F8093E0008091E1008E7E23
:102CD0008093E1008DE08093E200559A209A109253
:102CE00075011092740110925D0210927F02109291
:102CF0005B0281E080935A021092350282E00E94CA
:102D00004E1083E00E944E108091B9008E7F809318
:102D1000B9008091B9008D7F8093B90088E48093D9
:102D2000B80085E48093BC0086ED96E09093730133
:102D30008093720187ED96E090937101809370010A
:102D400088E18093B8008FEF9FEF90938D0280937E
:102D50008C0201E023E042E06BE6809111030E94C7
:102D6000C50C00E022E044E06BE1809111030E9479
:102D7000C50C22E044E06CE1809111030E94C50C77
:102D800020E046E06BE6809111030E94130D21E0E4
:102D900047E06BE6809111030E94130D6EE170E035
:102DA00080E090E00E94EC0820E046E06BE6809135
:102DB00011030E94130D40E76DE6809111030E94FC
:102DC000920B86E00E94D00D40E06DE680911103E9
:102DD0000E94920B28EE33E042E153E060E08091E4
:102DE00011030E94C20E7090120328EE33E042E1FC
:102DF00053E061E0809111030E94C20E80901203A3
:102E000028EE33E042E153E062E0809111030E943A
:102E1000C20E909012034FE765E2809111030E9469
:102E2000920B20E045E06AE6809111030E94130DA9
:102E300048E665E2809111030E94920B21E041E097
:102E40006AE6809111030E94130D64E170E080E056
:102E500090E00E94EC0801E020E040E069E877E0C3
:102E600087EE91E00E94D60D882309F4B5C288E070
:102E700090E00E9411217C0100E010E0F801E95D82
:102E8000FE4F6490F801E85DFE4F5490580123E036
:102E9000A20EB11CF801E75DFE4FE491EE2309F4A8
:102EA00085C0CE2ED12CE33028F0B601C7010E9498
:102EB00032227C01D70180E090E08C159D0548F41A
:102EC000F501E80FF91FE95DFE4FE491ED930196DE
:102ED000F4CF00E0252D462DB601C7010E94D60D86
:102EE00085010C0D1D1D882309F46FC0003C1105E0
:102EF00008F4C4CFC7010E94A92103E023E042E007
:102F00006BE6809111030E94C50C42E168E3809159
:102F100011030E94920B44E069E1809111030E9429
:102F2000920B01E023E045E06AE1809111030E94E9
:102F3000C50C03E023E042E06AE1809111030E94A6
:102F4000C50C22E044E06BE1809111030E94C50CA6
:102F500043E060E7809111030E94920B40E061E73B
:102F6000809111030E94920B20E040E060E080918C
:102F700011030E94130D072D26E046E060E08091CA
:102F800011030E94C50C082D26E046E061E0809107
:102F900011030E94C50C092D26E046E062E08091F5
:102FA00011030E94C50CE12CF12C14C00C5F1F4FC3
:102FB000F501E95DFE4FE491E13039F442E368E365
:102FC000809111030E94920B91CFC7010E94A92109
:102FD00012E003C2F701E850FF4FE491A1E8B0E02E
:102FE000AC0FBD1FAE0DB11DEC9381E08E0D9FEFB8
:102FF000E91AF90AA3E0AE1568F7CD57DF4F6881EB
:10300000C358D04070E09B012E5F3F4F90E02817DF
:10301000390704F700E0CE57DF4F2881C258D0406F
:10302000CF57DF4F4881C158D04081E890E08C0FE6
:103030009D1F03960E94D60D80E0F701E850FF4FD8
:10304000E491A1E8B0E0AC0FBD1FA80FB11DEC9357
:103050008F5FBFEFEB1AFB0A843078F3CD57DF4F59
:103060006881C358D04070E0AB014E5F5F4F282F9E
:1030700030E0421753070CF700E0CE57DF4F2881AE
:10308000C258D040CF57DF4F4881C158D04081E867
:1030900090E08C0F9D1F03960E94D60D0E94C90DD3
:1030A0000E94A90E682FCE0101960E94960E42E062
:1030B0006FE1809111030E94920B4CE961E28091D3
:1030C00011030E94920B40E560E2809111030E947F
:1030D000920B40E062E2809111030E94920B0E94E9
:1030E000C90D21E046E06AE6809111030E94130DAC
:1030F00021E047E06AE6809111030E94130D21E070
:1031000043E06AE6809111030E94130D80E0F7010D
:10311000E850FF4FE491A1E8B0E0AC0FBD1FA80F4D
:10312000B11DEC938F5F2FEFE21AF20A843078F32F
:10313000CD57DF4F6881C358D04070E0AB014E5F80
:103140005F4F282F30E0421753070CF700E0CE57AF
:10315000DF4F2881C258D040CF57DF4F4881C15838
:10316000D04081E890E08C0F9D1F03960E94D60D01
:1031700080E0F701E850FF4FE491A1E8B0E0AC0F28
:10318000BD1FA80FB11DEC938F5F9FEFE91AF90ADD
:10319000843078F3CD57DF4F6881C358D04070E05A
:1031A000AB014E5F5F4F282F30E0421753070CF7FB
:1031B00000E0CE57DF4F2881C258D040CF57DF4FB5
:1031C0004881C158D04081E890E08C0F9D1F039644
:1031D0000E94D60D80E0F701E850FF4FE491A1E88E
:1031E000B0E0AC0FBD1FA80FB11DEC938F5FAFEF28
:1031F000EA1AFA0A843078F3CD57DF4F6881C35852
:10320000D04070E0AB014E5F5F4F282F30E0421797
:1032100053070CF700E0CE57DF4F2881C258D0404B
:10322000CF57DF4F4881C158D04081E890E08C0FE4
:103230009D1F03960E94D60D0E94A90E8330910512
:10324000D8F3682FCE0101960E94960E80E0F70118
:10325000E850FF4FE491A1E8B0E0AC0FBD1FA80F0C
:10326000B11DEC938F5FBFEFEB1AFB0A843078F34C
:10327000CD57DF4F3880C358D040A32CB12CA501C7
:103280004E5F5F4F282F30E04217530704F7CE57A9
:10329000DF4F5880C258D040CF57DF4F2880C158E9
:1032A000D040422D4F716DE6809111030E94920B28
:1032B000852D0E94D00DC12CD12C812C9924939462
:1032C00031E8632E712C6C0E7D1E23E0620E711CA2
:1032D000CA14DB0498F5C6014096A816B90618F47E
:1032E000432C4C1802C090E1492E842D90E09401AB
:1032F000251931092817390714F4452C41949301F5
:103300002C0D3D1D08EE13E0442D6FE68091110356
:103310000E94A20BC40CD11C540CCA14DB04C0F6CE
:10332000511001C02394422D4F716DE6809111031D
:103330000E94920B852D0E94D00DCACF0E94A90E2B
:1033400083309105D8F3682FCE0101960E94960E26
:10335000F701E850FF4F80E09491A1E8B0E0AC0F96
:10336000BD1FA80FB11D9C938F5F843070F0CD57A7
:10337000DF4F6881C358D04070E0AB014E5F5F4FB4
:10338000282F30E04217530714F03196E5CF00E0C4
:10339000CE57DF4F2881C258D040CF57DF4F4881EA
:1033A000C158D04081E890E08C0F9D1F03960E9489
:1033B000D60D20E047E06AE6809111030E94130DCC
:1033C0008AE290E090931403809313030E94C90D46
:1033D0000E94B40D10E001C011E0109376018091BD
:1033E00011032CED30E0CD56DF4F39832883C359CC
:1033F000D040AE014D565F4F63E10E942A1080918C
:1034000011032CE430E0CF56DF4F39832883C159B4
:10341000D040AE014F565F4F65E10E942A10809167
:1034200011032BEA3FEFCF57DF4F39832883C15871
:10343000D040AE014F575F4F67E10E942A10809144
:1034400011032CEF36E03A832983AE014F5F5F4FC3
:103450006AE00E942A1011112CC08CEF99E00E94A2
:103460001C1021E047E06AE6809111030E94130DD1
:103470008DEB99E00E941C1084E697E09093010187
:103480008093000180916900836080936900E89ACD
:103490000E94B40D8093C70183E999E00E941C103B
:1034A00080911303909114039093C4018093C301FE
:1034B00010C082E799E00E9401106091760170E0EF
:1034C00080E090E04AE00E94E40E80E799E00E94EC
:1034D0001C1080E0282E80E0382E0E94B40D182F9A
:1034E0008093C7010E94A90E9093C6018093C501E5
:1034F00014FD03C08115944019F40E94C90D65C2E2
:1035000011FF63C20091C5011091C601E090C30193
:10351000F090C4010E151F0538F40E94A90E909377
:10352000C6018093C501EECF6E2D83E891E00E9425
:10353000960E0E191F091093C6010093C5018090C5
:10354000870190908801982489249824A0908B0169
:10355000B0908C01BA24AB24BA2400918F01109151
:103560009001102701271027609183017091840139
:10357000762767277627072E000C880B990B0E9469
:10358000341F20E030E040E858E30E9418206B012F
:103590007C01609301037093020380930303909373
:1035A0000403B401990C880B990B0E94341F20E08E
:1035B00030E040E858E30E9418202B013C01609362
:1035C0000503709306038093070390930803B501E6
:1035D000BB0C880B990B0E94341F20E030E040E8C0
:1035E00058E30E941820CB56DF4F688379838A8383
:1035F0009B83C559D0406093090370930A0380935D
:103600000B0390930C03B801110F880B990B0E94C8
:10361000341F20E030E040E858E30E941820C756ED
:10362000DF4F688379838A839B83C959D040609335
:103630000D0370930E0380930F03909310039B016F
:10364000AC01C301B2010E9418204B015C01CB56B2
:10365000DF4F288139814A815B81C559D040C7013C
:10366000B6010E9418209B01AC01C501B4010E9463
:10367000AD1D9B01AC010E94AE1DC356DF4F688398
:1036800079838A839B83CD59D0406093F5027093F0
:10369000F6028093F7029093F802A3019201C7010A
:1036A000B6010E9418204B015C01C756DF4F2881EC
:1036B00039814A815B81C959D040CB56DF4F68813F
:1036C00079818A819B81C559D0400E9418209B0135
:1036D000AC01C501B4010E94AE1D9B01AC010E946A
:1036E000AE1DCF55DF4F688379838A839B83C15A90
:1036F000D0406093F9027093FA028093FB0290939A
:10370000FC02A7019601C701B6010E9418204B01D7
:103710005C01A3019201C301B2010E9418209B0128
:10372000AC01C501B4010E94AD1D4B015C01CB563B
:10373000DF4F288139814A815B81C559D040CA0158
:10374000B9010E9418209B01AC01C501B4010E947F
:10375000AD1D4B015C01C756DF4F288139814A817D
:103760005B81C959D040CA01B9010E9418209B0150
:10377000AC01C501B4010E94AE1D4B015C01609318
:10378000FD027093FE028093FF0290930003A70155
:103790009601C701B6010E94AE1DCB55DF4F68836D
:1037A00079838A839B83C55AD040A3019201C301C8
:1037B000B2010E94AE1DC755DF4F688379838A83AB
:1037C0009B83C95AD040A7019601CB55DF4F688132
:1037D00079818A819B81C55AD0400E9418206B0153
:1037E0007C01A3019201C755DF4F688179818A81ED
:1037F0009B81C95AD0400E9418209B01AC01C7018F
:10380000B6010E94AE1D20E030E040E85FE30E9478
:10381000AD1D6B017C01CB56DF4F288139814A8178
:103820005B81C559D040C755DF4F688179818A8156
:103830009B81C95AD0400E9418202B013C01C756D9
:10384000DF4F288139814A815B81C959D040CB55EE
:10385000DF4F688179818A819B81C55AD0400E945F
:1038600018209B01AC01C301B2010E94AD1DA7014C
:1038700096010E942D1E60937701709378018093CA
:10388000790190937A01A5019401C501B4010E94C8
:1038900018206B017C01CF55DF4F288139814A8187
:1038A0005B81C15AD040CA01B9010E941820A7010A
:1038B00096010E94AE1D0E948B209B01AC01C35655
:1038C000DF4F688179818A819B81CD59D0400E94E8
:1038D000911E0E945D1E60937B0170937C0180931A
:1038E0007D0190937E01C356DF4F288139814A8143
:1038F0005B81CD59D040CA01B9010E941820A701AF
:1039000096010E94AE1D0E948B209B01AC01CF55F9
:10391000DF4F688179818A819B81C15AD0400E94A2
:10392000911E0E945D1E60937F01709380018093C1
:1039300081019093820120E030E044E353E40E944F
:1039400018202BED3FE049E450E40E94911E6B01EA
:103950007C0120E030E0A9010E940B20181624F021
:10396000C701B601905802C0C701B60120E030E09F
:1039700040E450E40E948C1E87FF06C0C701B601D8
:103980000E94250F8DE21FC020E030E040E450E4AB
:10399000C701B6010E940B2087FD06C0C701B60112
:1039A0000E94250F8CE40FC020E030E040E450EC92
:1039B000C701B6010E948C1E18163CF0C701B60163
:1039C0000E94250F82E50E94F00F2114310409F4B2
:1039D00084CD0E94000081CD109283021092820259
:1039E00088EE93E0A0E0B0E080938402909385029B
:1039F000A0938602B093870285E391E090938102C1
:103A0000809380028FEF9FEF90938D0280938C02C2
:103A1000109235031092340387E491E090933303BE
:103A20008093320380912A03811113C010922503E1
:103A30001092240387EF9AE0909327038093260344
:103A40008FE290E0909329038093280381E0809394
:103A50002A038091E102811105C00E94AB1081E030
:103A60008093E102E091DB02F091DC02309739F4BF
:103A700084E293E09093DC028093DB020AC08081B1
:103A80009181009711F0FC01FACF84E293E09183D9
:103A900080832091DD023091DE0280912803909195
:103AA0002903820F931F9093DE028093DD02109210
:103AB000EC021092EB0288EE93E0A0E0B0E080937D
:103AC000ED029093EE02A093EF02B093F00283E533
:103AD00091E09093EA028093E90288E680931103D3
:103AE00080E090E0A0E8BFE380930103909302039D
:103AF000A0930303B09304031092050310920603EE
:103B000010920703109208031092090310920A03FF
:103B100010920B0310920C0310920D0310920E03DF
:103B200010920F03109210031092F5021092F602F9
:103B30001092F7021092F8021092F9021092FA0213
:103B40001092FB021092FC021092FD021092FE02F3
:103B50001092FF021092000308955058BB27AA2725
:103B60000E94C51D0C94D11F0E94C31F38F00E94F3
:103B7000CA1F20F039F49F3F19F426F40C94991FC2
:103B80000EF4E095E7FB0C94931FE92F0E94E21FCF
:103B900058F3BA17620773078407950720F079F482
:103BA000A6F50C9404200EF4E0950B2EBA2FA02D50
:103BB0000B01B90190010C01CA01A0011124FF27DA
:103BC000591B99F0593F50F4503E68F11A16F040D5
:103BD000A22F232F342F4427585FF3CF46953795D4
:103BE0002795A795F0405395C9F77EF41F16BA0B99
:103BF000620B730B840BBAF09150A1F0FF0FBB1F47
:103C0000661F771F881FC2F70EC0BA0F621F731F8F
:103C1000841F48F4879577956795B795F7959E3FEC
:103C200008F0B0CF9395880F08F09927EE0F97957D
:103C3000879508950E94C31F60F080E891E009F421
:103C40009EEF0E94CA1F28F040E851E071F45EEF39
:103C50000CC00C94991F0C940420E92FE0780E946A
:103C6000E21F40F3092E052AB1F32617370748074C
:103C7000590738F00E2E07F8E02569F0E025E064DA
:103C80000AC0EF6307F8009407FADB01B9019D0150
:103C9000DC01CA01AD01EF930E94A81E0E94D11F52
:103CA0000E945D1E5F91552339F02BED3FE049E402
:103CB00050FD49EC0C94AE1D0895DF93DD27B92F1C
:103CC000BF7740E85FE31616170648075B0718F44E
:103CD000D92F0E9410209F938F937F936F930E9400
:103CE000CB20EAECF0E00E949C1F0E94D11F2F9194
:103CF0003F914F915F910E942B20DD2351F090580E
:103D0000A2EA2AED3FE049EC5FE3D0785D270E940C
:103D1000C51DDF910C94D11F0E946F1F08F481E034
:103D200008950E94A51E0C94D11F0E94CA1F58F02E
:103D30000E94C31F40F029F45F3F29F00C94931FA9
:103D400051110C9405200C94991F0E94E21F68F3F6
:103D50009923B1F3552391F3951B550BBB27AA2744
:103D600062177307840738F09F5F5F4F220F331F7E
:103D7000441FAA1FA9F335D00E2E3AF0E0E832D046
:103D800091505040E695001CCAF72BD0FE2F29D049
:103D9000660F771F881FBB1F261737074807AB071B
:103DA000B0E809F0BB0B802DBF01FF2793585F4F90
:103DB0003AF09E3F510578F00C94931F0C94052027
:103DC0005F3FE4F3983ED4F3869577956795B79572
:103DD000F7959F5FC9F7880F911D9695879597F97D
:103DE0000895E1E0660F771F881FBB1F62177307F6
:103DF0008407BA0720F0621B730B840BBA0BEE1F0B
:103E000088F7E09508950E94EA1F88F09F5798F080
:103E1000B92F9927B751B0F0E1F0660F771F881FCF
:103E2000991F1AF0BA95C9F714C0B13091F00E94E9
:103E30000420B1E008950C940420672F782F882780
:103E4000B85F39F0B93FCCF3869577956795B39510
:103E5000D9F73EF490958095709561957F4F8F4F7F
:103E60009F4F0895E89409C097FB3EF49095809584
:103E7000709561957F4F8F4F9F4F9923A9F0F92F30
:103E800096E9BB279395F695879577956795B795AE
:103E9000F111F8CFFAF4BB0F11F460FF1BC06F5F94
:103EA0007F4F8F4F9F4F16C0882311F096E911C0A6
:103EB000772321F09EE8872F762F05C0662371F0C7
:103EC00096E8862F70E060E02AF09A95660F771FDB
:103ED000881FDAF7880F9695879597F90895990FB7
:103EE0000008550FAA0BE0E8FEEF16161706E807C4
:103EF000F907C0F012161306E407F50798F0621BE5
:103F0000730B840B950B39F40A2661F0232B242BB9
:103F1000252B21F408950A2609F4A140A6958FEFD8
:103F2000811D811D089597F99F6780E870E060E02A
:103F300008959FEF80EC0895DF93CF931F930F9325
:103F4000FF92EF92DF927B018C01689406C0DA2E1B
:103F5000EF010E942B20FE01E894A5912591359157
:103F600045915591A6F3EF010E94C51DFE019701F1
:103F7000A801DA9469F7DF90EF90FF900F911F91FD
:103F8000CF91DF91089500240A941616170618069B
:103F90000906089500240A9412161306140605064D
:103FA0000895092E0394000C11F4882352F0BB0FDE
:103FB00040F4BF2B11F460FF04C06F5F7F4F8F4F41
:103FC0009F4F089557FD9058440F551F59F05F3F7C
:103FD00071F04795880F97FB991F61F09F3F79F02B
:103FE00087950895121613061406551FF2CF4695AD
:103FF000F1DF08C0161617061806991FF1CF86952F
:104000007105610508940895E894BB276627772712
:10401000CB0197F908950E946F1F08F48FEF089560
:104020009B01AC0160E070E080E89FE30C94911E7E
:104030000E942B200C94D11F0E94C31F38F00E94B5
:10404000CA1F20F0952311F00C94931F0C94991F14
:1040500011240C9405200E94E21F70F3959FC1F378
:10406000950F50E0551F629FF001729FBB27F00D26
:10407000B11D639FAA27F00DB11DAA1F649F66277B
:10408000B00DA11D661F829F2227B00DA11D621FCA
:10409000739FB00DA11D621F839FA00D611D221F84
:1040A000749F3327A00D611D231F849F600D211D68
:1040B000822F762F6A2F11249F5750409AF0F1F0EB
:1040C00088234AF0EE0FFF1FBB1F661F771F881F54
:1040D00091505040A9F79E3F510580F00C94931FDA
:1040E0000C9405205F3FE4F3983ED4F386957795D2
:1040F0006795B795F795E7959F5FC1F7FE2B880FFA
:10410000911D9695879597F9089519F416F40C94D6
:10411000991F0C94D4200E94EA1FB8F39923C9F385
:10412000B6F39F57550B87FF0E94E2200024A0E6BC
:1041300040EA900180585695979528F4805C660F68
:10414000771F881F20F026173707480730F4621BB7
:10415000730B840B202931294A2BA69517940794B9
:10416000202531254A2758F7660F771F881F20F032
:1041700026173707480730F4620B730B840B200DAA
:10418000311D411DA09581F7B901842F9158880FE9
:104190009695879508959B01AC010C9418200E9478
:1041A0006F1F880B990B08959F3F31F0915020F4B9
:1041B000879577956795B795880F911D9695879503
:1041C00097F9089591505040660F771F881FD2F7D6
:1041D0000895A1E21A2EAA1BBB1BFD010DC0AA1F48
:1041E000BB1FEE1FFF1FA217B307E407F50720F060
:1041F000A21BB30BE40BF50B661F771F881F991FDB
:104200001A9469F760957095809590959B01AC0123
:10421000BD01CF010895EE0FFF1F0590F491E02D31
:1042200009940F931F93CF93DF938230910510F47D
:1042300082E090E0E0915603F091570320E030E0F7
:10424000A0E0B0E0309719F14081518102811381E3
:1042500048175907C8F08417950769F4109731F08B
:1042600012960C93129713961C9327C00093560333
:104270001093570322C02115310519F04217530737
:1042800018F49A01BD01EF01DF01F801DBCF211520
:104290003105F9F0281B390B2430310580F48A816F
:1042A0009B816115710521F0FB019383828304C01A
:1042B0009093570380935603FE01329644C0FE014B
:1042C000E20FF31F819391932250310939832883A0
:1042D0003AC02091540330915503232B41F420918F
:1042E0001F013091200130935503209354032091F6
:1042F0001D0130911E012115310541F42DB73EB746
:104300004091210150912201241B350BE09154036F
:10431000F0915503E217F307A0F42E1B3F0B28176B
:10432000390778F0AC014E5F5F4F2417350748F02E
:104330004E0F5F1F50935503409354038193919305
:1043400002C0E0E0F0E0CF01DF91CF911F910F912B
:104350000895CF93DF93009709F481C0FC01329751
:1043600013821282A0915603B0915703109781F4E3
:1043700020813181820F931F209154033091550386
:104380002817390751F5F0935503E093540367C09C
:10439000ED0120E030E0CE17DF0740F44A815B8179
:1043A0009E0141155105F1F0EA01F5CFD383C28397
:1043B00040815181840F951FC817D90759F488810E
:1043C0009981840F951F0296918380838A819B81B6
:1043D000938382832115310529F4F0935703E093E9
:1043E00056033DC0E901FB83EA8349915991C40F0B
:1043F000D51FEC17FD0761F480819181840F951F13
:104400000296E90199838883828193819B838A83C1
:10441000E0E0F0E012968D919C911397009719F0CF
:10442000FD01DC01F7CF8D919C9111979D012E5FCD
:104430003F4F820F931F209154033091550328174B
:10444000390769F4309729F41092570310925603F4
:1044500002C013821282B0935503A0935403DF91DC
:10446000CF910895A0E0B0E0E8E3F2E20C941723C6
:10447000EC01009721F4CB010E941121B4C0FC0192
:10448000E60FF71F9C0122503109E217F30708F4E9
:10449000A8C0D9010D911C91119706171707B0F00C
:1044A0000530110508F49BC0C801049786179707CB
:1044B00008F495C002501109061B170B01931193C4
:1044C0006D937C93CF010E94A92189C05B01A01A42
:1044D000B10A4C01800E911EA0915603B091570372
:1044E000612C712CE12CF12C109709F446C08D91B0
:1044F0009C911197A815B905B1F56C0142E0C40E65
:10450000D11CCA14DB0478F14C018A189B086401A1
:1045100042E0C40ED11C1296BC9012971396AC9137
:10452000B5E0CB16D10440F0B282A38391828082A1
:10453000D9016D937C9309C00E5F1F4F800F911FAF
:10454000F90191838083EB2DFA2FE114F10431F00E
:10455000D7011396FC93EE93129741C0F093570343
:10456000E09356033CC06816790608F43C017D01CF
:1045700012960D90BC91A02DB7CF809154039091CD
:10458000550388169906E1F466167706C8F48091FB
:104590001D0190911E01009741F48DB79EB7409187
:1045A000210150912201841B950BE817F907C8F4EB
:1045B000F0935503E0935403F901718360830FC0B6
:1045C000CB010E9411217C01009759F0A801BE0186
:1045D0000E940A23CE010E94A921C70104C0CE0176
:1045E00002C080E090E0CDB7DEB7EEE00C9433235C
:1045F00081E090E0F8940C944A23FB01DC0104C0B4
:104600008D910190801921F441505040C8F7881BCA
:10461000990B0895FB01DC0102C001900D924150FD
:104620005040D8F708952F923F924F925F926F9229
:104630007F928F929F92AF92BF92CF92DF92EF9232
:10464000FF920F931F93CF93DF93CDB7DEB7CA1BB3
:10465000DB0B0FB6F894DEBF0FBECDBF09942A88DE
:10466000398848885F846E847D848C849B84AA8486
:10467000B984C884DF80EE80FD800C811B81AA8113
:10468000B981CE0FD11D0FB6F894DEBF0FBECDBFDE
:08469000ED010895F894FFCF3D
:104698005906590659065906590600C18081000075
:1046A80000FFFFFFFF00E1000000000000000058CD
:1046B800038000000000005A060708C7078106E8C3
:1046C8000300000000F90568077E070F061A06A711
:1046D800078307000000004F087215610760070094
:1046E800000000310704076107D806FC06E806D970
:1046F800066E616E00696E66006F7666000D0A00D0
:00000001FF
